:06000000000080318B2896
:10000800803120007F08F200121F10282100121FE3
:100018001028A231D42280312100921E19282000F4
:10002800921E1928A4318C2480312000121F222806
:100038002100121F2228A231D42280312000121D53
:100048002B282100121D2B28BA0A2000121120008B
:10005800121F34282100121F3428A231D4228031E3
:10006800270016198B1D3D28A431BA24803127009A
:1000780016112000121F46282100121F4628A231FF
:10008800D42280310B198B1E4E2806302000950093
:1000980039140B112000121F57282100121F57284E
:1000A800A231D42280312000111C60282100111CAB
:1000B8006028A331982380312000121F692821006D
:1000C800121F6928A231D42280310B1F7428210005
:1000D800111E74282000111E7428A3317F2380313B
:1000E8002000121F7D282100121F7D28A231D42252
:1000F80080310B1F87282100911E87282000911E20
:100108008728A5311E2572082000FF0009008031CC
:100118008D282030F801F901FA01840000308500AB
:100128003C30A231AF228031A030840000308500FD
:100138005030A231AF228031203084000130850058
:100148005030A231AF228031A030840001308500C8
:100158004030A231AF228031203084000230850047
:100168004730A231AF228031A030840002308500B0
:100178002030A231AF228031203084000330850046
:100188004930A231AF2280312000CA288531E525C7
:100198008031262380310F30DF002000B91ED92896
:1001A800210038080319D928B80321004408043A63
:1001B8000319E428F030990022000E1621000E12CF
:1001C800640044302100950099312E21803190310E
:1001D8001C2080319B31D32380318D31042580311F
:1001E800672180311321A7314227803195310B25B2
:1001F80080319E310A2680319A310222803198312D
:10020800612080318431062480319031C6208031CC
:10021800A63168268031853147258031D1282000D4
:10022800C601B91D1C2921005E0803191C29DE031B
:100238002000C91E4D2903302100C7004D29200088
:10024800C91A08002100C701080022008D102100EA
:100258008D10791D080026292000351E39295D21B9
:100268006430DE00C701C70A08006229200046146E
:100278005D2180312000B61C442962218031262965
:100288002100DE08031D08002000C610F919C61455
:10029800080021004708003A03193029013A0319D8
:1002A8003A29033A03192929013A031923295C2910
:1002B800080022008D1021008D10080022008D14E6
:1002C80021008D10080003302000C705391D74294E
:1002D800430803197029C30321005508031DD503DA
:1002E8002000471C7B29093047102100C800200046
:1002F800C91EE92A04302100C800E92A2000471550
:1003080022008C1221008C12152380312000351D0B
:100318004A1A0800B51B08006A2B2000C91A0800F1
:100328002100C801080022008C1221008C12200034
:1003380047161523803121009212CB012000351D6C
:100348004A1AA829B51F0800B51BAC294A1EB029AE
:100358009C31FF248031B3299D312625803120002E
:100368009212210092160530D50020001930C714CA
:10037800C30022008C1621008C12C830F500F6014B
:100388006F230730C800080022003F238031351D45
:100398004A1AD029B51F90292100D508031D080045
:1003A8004B0BDF2922008C1221008C1215230930F7
:1003B8002100C800080020006130C7102200920008
:1003C80008302100C800080022003F238031351D75
:1003D8004A1AF029B51F9029C308031D08002A08E6
:1003E800F4002908F300F52232302000C30005305C
:1003F8002100C800080022003F238031351D4A1A19
:10040800072AB51F9029C308031D080022004723A7
:1004180080310318132A06302100C800162A21004B
:10042800C801C80A59238031F52232302000C300A0
:10043800080022003F238031351D4A1A252AB51F9E
:10044800902922005B0820002E02031D2F2A22007B
:100458005A0820002D020318382A7D302000C300D6
:100468002100C801C80A662AC308031D662A5A3033
:10047800860001308700403F2D02DC00413F2E3BC3
:10048800DD00DD36DC0CDD36DC0C5C08013EDE0010
:1004980000305D3DDF005E08A9075F08AA3D023015
:1004A8002A02813003192902031C5E2A8030A90020
:1004B8000230AA002A08F4002908F300F522323095
:1004C8002000C3002000C711F919C7150800220031
:1004D8003F238031351D4A1A732AB51F9029C30856
:1004E800031D662A22004723803103187D2A023023
:1004F800932A2D0820002D07DC0022002E0820005A
:100508002E3DDD0022005B0820005D02031D902ABD
:1005180022005A0820005C020318952A03302100A3
:10052800C80059238031F522803105302100D500DB
:100538007D30642A22003F238031351D4A1AA62ABD
:10054800B51F902922005B0820002E02031DB02A47
:1005580022005A0820002D02031C312AC308031D5B
:10056800662A02302A028030031929020318BF2A9A
:10057800A90A0319AA0A2A08F4002908F300F5228F
:1005880080319C2A22003F238031351D4A1ACE2A09
:10059800B51F90292E0822005B02031DD72A2000D0
:1005A8002D0822005A02031C312A2000C308031D0B
:1005B800662A00302A02023003192902031CBF2AC6
:1005C8000130A9020030AA3BBF2A21004808840054
:1005D8000A3004020318902988310435003E82004D
:1005E800080002307402813003197302031C002BC7
:1005F8008030F3000230F400731C052B250013161D
:10060800072B25001312F436F30C731C0E2B250050
:100618009316102B25009312F436F30C73089100EF
:1006280008002000A901AA012500930120009C01CF
:100638009A012500910122008E1221008E123E009F
:10064800901308008E312E2680319031C5208031DC
:100658005F238631C726803162236630F901FA01AB
:10066800F3000130F400F501F50A8E31A4260830B4
:100678002100B80008008C1621008C1220000430DC
:1006880047179C0008002D0820002D02DC002200DE
:100698002E0820002E3BDD0022005B02031D08000F
:1006A80020005C0822005A02080020002A08F400F2
:1006B8002908F30008000830BF0008002000CC011A
:1006C80022009630B7012000C40008002100C801AC
:1006D80020004710152B3E00901721008E16C730BA
:1006E80020009B000C30250093007608F400750864
:1006F800F300F5228031200091100B1304309C0088
:10070800911C842B0B1721008E120800381E9E2B7B
:10071800461C922BFA302100A000942B2100A00146
:10072800A10121088C31E22405302100AE001830E7
:10073800C1000800B81EB22B461CA62BFA302100B7
:10074800A000A82B2100A001A10121088C31E224DE
:1007580005302100AE001B30C1000800A11C0800B4
:10076800903101208331EC3022001902031CBE2B8A
:100778006430C52B81301902031CC42B3230C52BC1
:1007880014302100B50020008C31EF248331A631CC
:100798001626833121003508F300F401200054089F
:1007A800F6005308F500A4313D2483317408AC00E9
:1007B8007308AB005302EA002C08543BEB002802F4
:1007C800031DE82B6A0827028A310318082A21002A
:1007D800AA012000BB0121000A30BC01BC0ABB00F1
:1007E800A33101230530BE0ABC032100C1002C0837
:0607F800031DAC03080024
:10080000002C84318207032C883114282000B70182
:10081000B801391F1F2D220030082F0403191F2D86
:100820000130AF020030B03B1F2D2000B716211B56
:1008300008002100BE01BE0A08002000B7172200F0
:1008400030082F040319272C2100BE0108002000C6
:10085000491B372C402C2000371408002000371586
:10086000080020000430B8162100BE000800210056
:100870002A08163A03192B2C0A3A03192E2C312C6C
:10088000491D080020000430B8162100BE008F3139
:100890005D2F22003F082000E400220030082F04D2
:1008A0000319192C2000491BD42C402C2000E41FD4
:1008B0005F2CAF302200D0059030D004422CAF30F6
:1008C0002200D005A030D00400309031A520843122
:1008D000200003303814452CAF302200D005903072
:1008E000632C20003714472C20003715472CE730A5
:1008F0002200CE05CE15642CE7302200CE05642CF4
:10090000D4268431CF15642CD4268431CF14642CA2
:1009100000308E314F268431682C4408113A031977
:10092000AA2C2B255C30F3000130F4008430F50054
:100930000230F6009831442084316E30F3000130EB
:10094000F400F501F50A8E31A4268431143021001B
:10095000C400AC2C2B258431C101C10A642C2200B7
:100960004F10642C22004F14642CC7268431682C4D
:100970002000B714472C20003716472C2200CF1731
:10098000642C2200CF16642C2200CF12642CD426B3
:1009900084314F15642CD42684310630D22CD426D1
:1009A00084310C30CF04642C21002A08083A031942
:1009B000562C183A03196C2C063A0319712C0C3A70
:1009C0000319B82C063A0319742C3A3A0319BE2CB1
:1009D0000A3A0319882C1E3A0319B52C063A031952
:1009E000AF2C0C3A0319B22C063A0319772C7E3A35
:1009F00003197C2C143A0319C12C0C3A0319C42C8A
:100A0000063A03198D2C3A3A0319BB2C0C3A0319F8
:100A1000CF2C063A0319802C1E3A0319CB2C063A28
:100A20000319C72C0C3A0319842C422C402C2000AB
:100A3000491E0800242C2000C91F0800242C210076
:100A40003E088400053004020318192CA031043537
:100A50005C3E820008000B302000E3006308383E53
:100A60008600013087006308013E8400A830883189
:100A7000882084311A30E30A6302031C2E2D38309B
:100A8000DA26843162268F315D278331262B2100BF
:100A9000E40120003A1CC02D21004D080319C02D8F
:100AA000CD03C02D2408AA3A031D5A2DA401C2016A
:100AB000C20A0800CD08031D08000230C200080069
:100AC0002000C918080022004E082000E300F93079
:100AD0002200CE0521002508553A0319782D07304C
:100AE000F5000230CD2584312000E4002200BF0053
:100AF0002100A5012608953A0319922D0330F5002F
:100B0000CD2584312000E5000430F5000330CD25EB
:100B100084312000E60065082500A3002000660857
:100B20002500A40021003830A6012000DA268431F7
:100B300062268431A0302000DD000230DE0020304B
:100B4000DF0003306226200063082200CE0021006F
:100B5000C2010800383020008831802084313426DA
:100B60008431A030DC000230DD000330DE002030B4
:100B7000DF0034268431FF302100CD006414A72D1E
:100B800021004208003A0319522D013A0319602D41
:100B9000033A0319AA2DA72D08002000DC00DD0070
:100BA0000530DE01DD35DE0D890BD22D7508DD0740
:100BB0000318DE0A8030DD073F30DE3D5E08F400BA
:100BC0005D08F3009C2673080800A830E0268431F5
:100BD00034268431230029080319F22D2908A63A66
:100BE000031DF52D9B31002B0800290B0800A830B0
:100BF0002000E026843134268431FF302300A90010
:100C0000A8302000DD000130DE002030DF000030A1
:100C100062263830200088318020843134268431A7
:100C200005308400A830850000082200BC00063092
:100C30008400A83085000008BD0007308400A8307B
:100C400085000008BE000A308400A8308500000836
:100C5000C1000B308400A83085000008C200383085
:100C60002000DA268431622E5E08F6000530F70196
:100C7000F635F70D890B382E8030F6073F30F73DFB
:100C800021305F020318FF3404305E020318FF3482
:100C9000DF08031900347708F4007608F3009C2677
:100CA00084317308F50020005C0886005D08870029
:100CB00075088100F60A0319F70ADC0A0319DD0A30
:100CC000DF03482EE000E1000530E201E135E20DEE
:100CD000890B662E8030E1073F30E23D21305F0214
:100CE0000318080004306002031808006208F400CA
:100CF0006108F300E7268431023020005F026208B9
:100D0000F4006108F3005D0886005E0887000108B2
:100D1000F500F601F701031C982EF70AAB26843183
:100D2000DD0A0319DE0AE10A0319E20ADF037C2E59
:100D3000AB262300150808007408230092007308EE
:100D40009100151315140000000023001408F4008E
:100D50001308F300080000308B1B0130DC008B13FC
:100D600074082300920073089100760894007508B7
:100D700093007708031D9516031995121513151284
:100D80001515FB2620005C08031D8B170800243076
:100D90002000D700EA30D600EF30D5012100ED0069
:100DA000F130EC00EB01080060302200CE04F1309D
:100DB000CF050800DD000130DE002030DF00023406
:100DC000DC000130DD002030DE01DF0008000030F3
:100DD0008B1B0130F5008B137408230092007308FD
:100DE0009100151315161515FB262300151175080E
:100DF000031D8B170800230055309600AA3096007B
:100E0000951400000000080011272200B101B20172
:100E10002000FF30A401A501A6012100CC00C501DE
:100E2000080022004E082000E00022003F082000B9
:100E3000DC00220050082000E100791D222FF9304B
:100E40002200CE052000DB01DD01DD0A451DC519AC
:100E50002A2FDD015D085B12031D5B165B11C518AF
:100E60005B152000DB104518DB142000DE01DE0AD4
:100E7000791F48193C2FDE015E085B10031D5B14CF
:100E8000DB11451ADB1520005B13C51A5B17200028
:100E9000CE015B08031D4E14CE13E01BCE172000BD
:100EA000CE10CA1ACE142000DF01DF0AB51F4A1A7D
:100EB0005A2FDF015F084E11031D4E15CE11601928
:100EC000CE152000CE122119CE160310791D031461
:100ED00020004E1203184E1603102000201C03148D
:100EE0004E1303184E1720006010CA1A6014200019
:100EF00060082200CE002100E601E6132000B71EA4
:100F0000832F2100E617210066132000C81C8A2FBA
:100F10002100661721006612791A661621006610F4
:100F20002000A11F952F210066142000201C9D2F5A
:100F300021006608F1390238B82FA01CA42F210027
:100F40006608F1390438B82F201DAB2F2100660840
:100F5000F1390638B82FA01DB22F21006608F139EB
:100F60000838B82F201E982F21006608F1390C3858
:100F7000E600E50103102000DC1F03142100E51347
:100F80000318E5172000E11FDC2F611BD42F21007F
:100F900065132000611FCE2F210065172100E51287
:100FA0002000E11EE12FD92F210065172000221D0E
:100FB000E12F2100E516E12F2100651720002219FD
:100FC000D92F2000221EEA2F21006508F0390138B0
:100FD000E5000800221DF22F21006508F0390E38C7
:100FE000E5000800A21D0800F0302100E50508001A
:100FF0002100AB0120000330BC012100C10008002A
:101000008131972982316B2A82319E2A8231C62A08
:10101000813191298131FF2982311D2A8131C829ED
:101020008131E829813182292000B9140800383043
:101030008020863134268831003A03193028E101B6
:101040006108383E8600013087006108013E840057
:10105000A830882088312030E10A6102031C202852
:10106000A030DC000230DD000330DE002030DF0085
:10107000863134268831003A03196328E10161087A
:10108000A03E8600023087006108213E8400A8301F
:10109000882088311430E10A6102031C3F28143093
:1010A000E001E1006108A03E860002308700600890
:1010B000F43E84009F30882088312030E00AE10A25
:1010C0006102031C5228F93084009F30850000081B
:1010D0002200B800FA3084000008B900F43084001F
:1010E0000008BC00F53084000008BD00F630840024
:1010F0000008BE00FF302100CD00C201E40108005D
:10110000DC000130DD000230DE002030DF000800AE
:101110000318013E85000008810008002000DC0063
:10112000A1294E30F3000130F4007608F500A43117
:101130001A2488312200AA30CE16210001228831DB
:101140004E082000DE005E1DA728A417A828A516BB
:10115000DE1825172200CE1020004B195E1801342E
:10116000FE3024162100A9002200E001E101E20185
:1011700020004B1101345B30F3000030F40076089E
:10118000F500A4311A248831A331442301345730A7
:10119000F3000030F4007608F500A4311A2401347D
:1011A0005630F3000030F4007608F500A4311A241C
:1011B00001345530F3000030F4007608F500A43116
:1011C0001A240134ED30F3000030F4007608F50005
:1011D000A4311A240134EC30F3000030F400760816
:1011E000F500A4311A240134EB30F3000030F40090
:1011F0007608F500A4311A2401344330F30001309D
:10120000F4007608F500A4311A24AA30A400A50140
:1012100001344430F300013000295030F300013034
:10122000F4007608F500A4311A248831AA3001228E
:1012300001344F30F300013010294530F300013004
:1012400000294630F300013000294730F300013017
:1012500000294830F300013000294930F300013003
:1012600000294A30F300013000294B30F3000130EF
:1012700000294C30F30001300029C730F60576080C
:10128000031901343F30F3000130F4007608F50013
:10129000A4311A24883101309031A5208831FA30E8
:1012A0002200B100B2013F082000DD00DD1F5F29F0
:1012B000AF302200D0059030D004C8306C295D1FBB
:1012C00067298F302200D005A030D0046B298F30E1
:1012D0002200D005D017C730BC000134A430F30081
:1012E0000230F4007608F500A4311A240134A3304A
:1012F000F3000230F4007608F500A4311A2401341A
:101300005430F300013000295530F300013000293A
:101310005630F300013000295730F3000130002926
:101320005230F300013000295330F300013000291E
:101330003830F300013000293930F3000130002942
:1013400000345C08003A03199128013A0319BB28BC
:10135000033A0319C728013A0319D028073A031999
:10136000D928013A0319E228033A0319EB28013A74
:101370000319F4280F3A0319FD28013A0319092922
:10138000193A03190D29023A03191929073A0319C1
:101390001D29033A03192129013A031925290F3A76
:1013A00003192929013A03192D29033A031931296F
:1013B000013A03193529073A031939292C3A031937
:1013C0003D29013A03197729033A03196E29053A91
:1013D000031980290F3A03198429013A031988292E
:1013E000033A03198C29013A03199029073A031982
:1013F0009429013A03199829033A03199C29A02931
:101400000800A400FA30A5012200B100B2010800D2
:10141000EB302200190203183F2A2100AC08031DFB
:101420003F2A20002C08EB002B08EA00EB36EA0CE0
:101430006A085302EC006B08543BED002802031DC0
:10144000232A6C08270203182A2A01309831002029
:101450008A313C2A2B085307EA002C08543DEB0044
:1014600028086B02031D362A27086A0203183F2A40
:101470000130A231F5228A3132302100AC001D301A
:10148000200054024C300319530203185B2A220037
:101490001908FF3A031D4E2A210008001908983147
:1014A00000208A31003A03190800F430F3000130BB
:1014B000F400A531102D7E305402F530031953028B
:1014C000031C08002730220019020318692A210092
:1014D00008001936A231F5228A31522A2000491615
:1014E000C917002DD9248A31031D8E2A813162212A
:1014F0008A312000471F832A6430F300F4018231CF
:10150000F5228A31892A6430F500F60183316F2390
:101510008A31E9241C302100C100080083311523E1
:101520008A3181316229D9248A310319992A21000B
:101530000800833115238A312100AE0BA52A21082A
:10154000E2241D302100C1000800E9241B302100E5
:10155000C100080022008C1621008C1220003208E5
:101560003104031DB52AC917002DC916833115236F
:1015700021000800D9248A31031D8E2A813162217D
:101580008A312000471FCB2A6430F300F4018231F6
:10159000F5228A31D12A6430F500F60183316F23B8
:1015A0008A31E92419302100C1000800D9248A3188
:1015B0000319DC2A210008002100AE0BE52A2108CE
:1015C000E2241A302100C1000800E924183021006B
:1015D000C1000800AA2AD9248A31031D8E2A81312C
:1015E00062218A312000471FFD2A9030F30001302C
:1015F000F4008231F5228A31032B9030F50001305E
:10160000F60083316F23B8302000B1000B30B200F8
:1016100016302100C1000800D9248A310319122B89
:10162000210008002100AE0B1B2B2108E2241730FB
:101630002100C1000800E92415302100C100080084
:10164000D9248A31031DB52A4916002D2000C9145A
:10165000A1182C2B21000800903101208A31CD24C3
:101660008A3103183D2BBE0ABC0B372B392B2100C6
:101670000800C830F300F401592A05303E02031C6B
:10168000DB2BA3310E238A310630F62C903101205A
:101690008A31CD248A310318592B05303D02031CB1
:1016A000DB2BA3310123BE0ABC0308302100C1009B
:1016B0000800BD0ABC0B5D2B5F2B21000800A33185
:1016C00001234108BD0007302100C10008002000AF
:1016D000C914A1186D2B21000800903101208A3116
:1016E000CD248A3103187D2B05303D02031CD92BF4
:1016F000A3310E238A310A30FB2CBD0ABC0B812B8F
:10170000832B210008003B08073A031DD92B4917FA
:10171000993110292000C914A118902B210008002C
:10172000903101208A31CD248A310318B12BBE0AB1
:10173000BC0B9B2B9D2B21000800A231A5228A31D6
:10174000A33101238A314108BE00BB0A3B08083A95
:10175000031D552B21003C080319D92B0B30C10068
:10176000080005303E02031CD92BA231A5228A3184
:10177000A33101238A31BD0ABC03BB0A3B08083AE6
:10178000031D632B21003C08031DD92B0C30C10025
:1017900008002000C914A118CF2B210008009031A7
:1017A00001208A31CD248A310318E82BBE0ABC0BF4
:1017B000E62B2000C915C830F300F401A231BC2A81
:1017C0002000C914A118462B2100080021000800A0
:1017D00005303E02031CD92BA3310E238A31093078
:1017E000F62C2000C914A118F72B21000800903115
:1017F00001208A31CD248A3103180B2C05303D029B
:10180000031CD92BA231A9228A31A33101238A31A9
:10181000BE0ABC03A52BBD0ABC0B0F2C112C21004A
:101820000800A231A9228A31A33101238A3141085B
:10183000BD00BD2B2000C914A118202C21000800D8
:10184000903101208A31CD248A3103182D2CBE0A13
:10185000BC0B2B2CD92B2100080005303E020318AD
:10186000332C21000800A3310E238A310E30F62CD0
:101870002000C914A1183E2C21000800903101203D
:101880008A31CD248A3103184E2C05303D02031CC9
:10189000D92BA3310E238A310D30FB2CBD0ABC0B92
:1018A000522CD92B210008002000C914A1185A2C51
:1018B00021000800903101208A31CD248A3103189B
:1018C000672CBE0ABC0B652CD92B21000800053003
:1018D0003E02031CD92BA3310123BD0ABC030F30E8
:1018E0002100C10008002000C914A118792C210092
:1018F0000800903101208A31CD248A31031CD92B74
:10190000BD0ABC0B842C862C21000800A3310123C6
:101910008A314108BD006F2C2000C914A118922CF7
:1019200021000800903101208A31CD248A3103182A
:10193000A22C05303D02031CD92BA33101238A318F
:101940001030FB2CBD0ABC0BA62CD92B21000800A3
:101950002000C914A118AE2C2100080090310120EC
:101960008A31CD248A310318BB2CBE0ABC0BB92C9A
:10197000D92B2100080005303E02031CD92B491544
:10198000882B2100410884001F300402031808003E
:10199000A0310435003E820008002B085302EA0003
:1019A0002C08543BEB002802031D08006A0827029C
:1019B000080022008C1621008C122000C916320863
:1019C000310408002000B200210020082000B100EE
:1019D0000800F4302000B1000130B20008002808EF
:1019E000F4002708F3000530F5004F34BD0ABC03AE
:1019F0002100C1000800BE0ABC032100C10008008C
:101A00002100C101C10A08002000391E562DDE3018
:101A1000F3000130F400003078180130F5000A308E
:101A2000F60004268D316E307810F3000130F4009A
:101A3000023022005F02853003195E020030031875
:101A40000130F5000330F60004268D31DC30F30060
:101A50000130F400023022005F023D3003195E02C3
:101A60000030031C0130F5000330F60004268D31F0
:101A70006830F3000130F400003021006A02E630E3
:101A8000D9278D3104268D316630F3000130F40002
:101A9000023023004B026E3003194A020030031853
:101AA0000130F5000A30F60004268D312000B91D02
:101AB000BA2D6C30F3000130F400013021006A02CD
:101AC000C230D9278D3104268D312000461C7B2D54
:101AD0006A30F3000130F400013023005302F53086
:101AE00003195202003003180130F5006430F6008B
:101AF00004268D317F2DEE278D31A4268D312000D7
:101B00004A1A842DB51F962DEE30F3000030F400F4
:101B100000302A02D230031929020030031C0130A0
:101B2000F5006430F60004268D319B2DEE30E92758
:101B30008D31A4268D3120000030DF0122005F02AC
:101B40009B3003195E02031CAF2D01305F020E3083
:101B500003195E020318AF2D2000DF01DF0ADA301F
:101B6000F3000130F40020005F08F5000A30F600B1
:101B700004268D3122006D0BBF2D7914C02D7910F4
:101B800021006F030319C72D22006B0BC92DF91516
:101B9000CA2DF91123005B0BCF2D7A14D02D7A10AA
:101BA00022006F0BD52D7915D92D23005D0BD92D72
:101BB0007911210038080319F72D2200670BE32D56
:101BC00020002217E52D2000221322004E082000BD
:101BD000DE005E1BF42D2100380BF72DE030E227EC
:101BE0008D31221FF62D20142100F72DA015230082
:101BF0005F0BFC2D7916FD2D79122200690B022E48
:101C000079170800791308007308860074088700A4
:101C1000413101087506031D132E730886007408F0
:101C20008700810108007308860074088700810A14
:101C300073088600740887000108760203180800FC
:101C40007308013E2000DC000030743DDD005C08BC
:101C500086005D088700750881000D2EB626883144
:101C600017208D315D27A3311B238D3198310C2036
:101C70008D3190318C208D31C3278D31BF278D312F
:101C800067269731B2278D31D0278D31C627A431F1
:101C9000EA248D319731F8278D318731042F2000C8
:101CA000DC005C0B562EE030C505572EC501EE302A
:101CB00079134811F911E9278D31A4268D31F427C4
:101CC0008D31A42620004711C711221008006C3066
:101CD000F3000130F400F501A4268D31EE30E92740
:101CE0008D31A4268D31EE278D31A4268D31F42738
:101CF0008D31A4268D316E30F3000130F400F501F2
:101D0000A4268D31DE30F3000130F400F501F50A30
:101D1000A4268D31DC30F3000130F400F501F50A22
:101D2000A4268D31DA30F3000130F400F501A42649
:101D30008D316630F3000130F400F501F50AA42678
:101D40009030F900FA0108007308860074088700D3
:101D500081017308013EF6000030743DF7007608FB
:101D600086007708870075088100080018278D31E4
:101D70000E278D315A278D31F9268D310A278D3165
:101D800052278D3104278D3149278D31D7268D314A
:101D9000EC268D31CF268D31FA2790310328A330E0
:101DA0009E009F019B019C0101309D0008000A30AC
:101DB0003E0091000C3092000230930008309400F5
:101DC000023095009600083097002030980080304F
:101DD0009900023090000800210092128430220005
:101DE000910061309200200092122100CB019216E6
:101DF00008001213943022009300A83094002000B1
:101E00001213210012170800803022009A000930B6
:101E10009B0008008A3022009700080070302100E3
:101E2000990098012200960121001A1B0800142F26
:101E300022008C018D0110308E00083021009000AE
:101E40000F308C00DC308D00CE308E0023008E01F0
:101E500009308D000F308C0024009001C0308D00BF
:101E60008C018E012100951325008C018D018E01BE
:101E7000FF3026008C008D008E0027008C008D0026
:101E80008E00083090003C00AA0004303D00A50000
:101E900008003C3025009300633091009201FC3033
:101EA0009E050800C73020009B009A019110043065
:101EB0009C00080016309700080022004E08F5002C
:101EC0004F08F6003F08F300751E6D2F381C6A2F6F
:101ED0002000702F20002111712F20002111F519F1
:101EE0002115E030E2278D31751B7C2F221F7A2FC0
:101EF0002014982FA015982F7636F4000730F4059B
:101F0000872FA014982F2015982F2016982F74082B
:101F1000013A0319782F033A0319812F013A031963
:101F2000832F073A03197A2F023A0319852F782F46
:101F3000F31F9F2FAF302200D0059030D004220035
:101F40005008F700F71B771BB62F771EAC2F200029
:101F500022122211A215B62FF71EB22F2000221234
:101F60002215B52F200022162211A2112000A11344
:101F70007618A11720002113F61B21170800C701AE
:101F8000C70A81315D292100C80108001830C4004A
:101F900020000830B501B6012100A200A30108000D
:101FA0002300D401D501D6012000CB012100C601B8
:101FB0000800031969020030031C0130F5000A30E3
:101FC000F60008002000A005FF30A105A205A3052A
:101FD0000800F3000030F400F50108006A30F30057
:101FE0000130F400F50108006830F3000130F4001E
:101FF000F501080080302200980084309900080024
:10200200A11008002000990180309700960111105C
:1020120017082200B600B501200016082200B504F8
:1020220021001114013019208D3020009800080081
:10203200F300A70008002000CC01B91D24284408A1
:1020420003192428C403B91E80282100600803193B
:102052008028E00380282000CC14BF209031C408DF
:10206200031D08000C1D3B286430C4002200B70188
:10207200B70A0800B728BF209031CC140C1D3B28AA
:10208200C408031D0800CC168C200C302100E0008F
:1020920002302200B7000800BF2090310C1D3B28FF
:1020A200CC162100E008031D08006A082500A400E0
:1020B200210069082500A3000230A520C8302000B5
:1020C200C40003302200B70008002000CC15C40869
:1020D200031D08006430C40005302200B700080068
:1020E20020004C15C408031D080006302200B7006A
:1020F20008002000CC14732820004C140800220091
:10210200370884000730040203187628A03104350A
:102112004E3E820008000A302100D0000530D40073
:102122001930D3000430D2003C30D1002000C0016D
:10213200F811BF0178112100C90120009601970111
:102142001730F81095000800F300AA302100A4000F
:10215200A501A601730BB0285530A500080073082D
:10216200023A031D08009530A6000800200019302D
:10217200CC14C40004302200B700080023000C1164
:1021820021000C1520000800172A2100E30120007D
:102192003A1CD02821005F080319D028DF03200051
:1021A200391DF82921004F080319D828CF0322002E
:1021B200340833040319E1280130B3020030B43B80
:1021C20021005908031DD9035B080319F829DB0311
:1021D200F829A33135239031791DFA1C0800093002
:1021E200C00008007919F828FB28A33135230830EC
:1021F200C0000800FA1CE3150800003011229031DB
:10220200DF080319F62820004D1C080003302100C6
:10221200CF00372202302100C0000800CF08031D82
:102222001329172A20004D1C1229CD1E0800CD1299
:102232004D102100AD012000DD01DD0A4208FF3E04
:10224200F400FF301C22903103182F2920005D0872
:10225200203E86000330312290311E2920004208A0
:102262001F3E860003308700010821002D06031D52
:1022720008000030A231E9229031003A03195F29A7
:102282002000DD01262290311C22903103185429AE
:1022920020005D08203E8600023087005D082A2269
:1022A2009031DD0A432920004208FE3E2100B90098
:1022B2000A306314DB000730C00008006430CF002E
:1022C2000630C0000800CF08031912290030A231DD
:1022D200E9229031003A031908002000DC0126228D
:1022E200903103180030F500803AF6008030760213
:1022F200031D7D295C087402031C542920005C081C
:10230200203E8600023087005C082A229031DC0AD7
:102312007029DB08031912292000A51F0800251DBA
:102322009A2902302600A0000230A1012000C2003A
:10233200DE292100AD012000DE0121003908200044
:102342005E020318AC295E08203E8600013031226D
:102352009031DE0A9E29DE01DE0A21003908013EA3
:10236200F400003003180130F500803A803C031D70
:10237200BD29740820005E020318CD2920005E08E2
:10238200203E8600033087005E081F3E8400013035
:10239200850000088100AD2921003908013E200096
:1023A200C200203E86000330870021002D088100F4
:1023B2002000C20A42082600A00021009112230038
:1023C2001E129D179E16210011163722033021007E
:1023D200C000080022003408330403191229200027
:1023E2004D1D08002100D908031D080012292100F3
:1023F2004008003A0319FE28023A03190F29013A4C
:102402000319EB29053A03196429013A03198A29A8
:102412000F3A0319EA28013A0319F328122908008E
:10242200F300210062060319E2010800A4316224CC
:102432002100C001080003180030F500803A803CFA
:10244200031D080074085D0208004208FE3EF40005
:10245200FF34213E8400033085000008810008001B
:10246200870001082100AD0620000800303022005C
:10247200B3007530B40008002000A5132100B90193
:10248200B92BF6249231C03A031D602AA410241CF1
:102492005E2A3F302410240022052000E40021009F
:1024A2002806031D5E2A24002308F60021003408B2
:1024B200F700280888318E20923120006F2A2400EC
:1024C2002208093A031D722A230B6D2A2000A41C3C
:1024D2006F2AA41024146F2A2000A410A517251512
:1024E200B92BFC3022052000E400043A2410A41089
:1024F200031DA42BD52A2000A210AB2A2000A2146F
:10250200AB2A2000A213AB2A2000A217AB2A22007A
:10251200A201EE2A24002308003A03197C2A013A78
:1025220003197F2A033A0319822A013A0319852AD9
:10253200882A2400A308031DA22A8631C7269231C5
:10254200AB2AE424A33167239231DA2492312100A9
:10255200AF01AF0A2200A201A20AEE2A2400A308B8
:10256200031DBB2ABE302200CD05A030CD042000C1
:102572002514AB2AE424A33167239231DA24923161
:102582000230D22A2400A308031DCB2A2200A13044
:102592004D13B72AE424A33167239231DA2492310E
:1025A20003302100AF00AB2A2400220803392000A7
:1025B200E400E5016508003A0319E02A882A640864
:1025C200003A03198B2A013A03199A2A033A03198A
:1025D200AF2A013A0319C32A882A0330022592310D
:1025E200B92B2308A331D6239231003A031D072DBC
:1025F200B92B2308A331D6239231003A0319B92B00
:1026020021006608A731292FA308031D0B2B2000E8
:10261200A4151B2B2308FF3A031D122B200024179D
:102622001B2B20002416240023082100A9001B2BA9
:102632002000A41622000330A201A20A2100B90040
:102642005E2A20002415240023080319302B85312B
:102652002B2592312000A514200025141B2B833139
:10266200262392311B2B23082000EC000F390F3A4E
:102672000319712B7C2B220045086C2B2200450E7E
:102682006B2B220046086C2B2200460E6B2B22007D
:1026920047086C2B2200470E6B2B220048086C2B3C
:1026A2002200480E6B2B220049086C2B2200490E97
:1026B2006B2B22004A086C2B22004A0E6B2B220045
:1026C2004B086C2B22004B0E6B2B22004C086C2B00
:1026D20022004C0E0F392000EF000F30EF057F2B48
:1026E2006C0E0F3984001030040203187F2B9F31C7
:1026F2000435A03E82006C080F39EF0022003F082B
:102702002000E800E81F8D2BAF3022122211A21503
:102712002200D00590309B2BEF080319852B6F0800
:102722000E3A8F30031D9D2B22122215A211220078
:10273200D005A030D0042D2B22162211A211220086
:10274200D005D0172D2B24002208003A0319F22AB3
:10275200013A0319052B033A0319192B013A0319FC
:10276200342B093A0319FA2A353A0319222B3F2A44
:10277200FC2492312100C501D02C20002410A41089
:10278200A22C02302200A3000530A4002400250858
:102792002200A500063002259231B72C2200043017
:1027A200A301A30AA4000530CC2B0A302200A40006
:1027B2003E08A5000F30A5053D08A6004208A70067
:1027C2004108A8003C08A900AA012300280820000B
:1027D200E600E7012200AB005F30AC000930A30045
:1027E20020000D309E2C27082000EE00240028082F
:1027F2002000ED00240029082000E900E9366908DC
:10280200F300F4016E08F6006D08F500A3316723AA
:1028120092317408EE007308ED000130ED020030D1
:10282200EE3B23003B082000EB0023003A08200087
:10283200EA006B086E02031D202C6A086D02031861
:10284200492C240027082300AC0024002808230078
:10285200AB00240029082300AD00A630A900200007
:102862006E082300B90020006D082300B800A830CC
:102872002000DD000130DE002030DF000030863134
:1028820062269231200024152200A401A40A4C2CB5
:1028920081302200A4000630EC2492312400270863
:1028A2002200A700240028082200A80024002908EA
:1028B2002200A90020000A309E2C25082706031DAD
:1028C200732C26082806031D732C2508FF3A0319CA
:1028D200732C25082200B900240026082200B80023
:1028E2001030752C90302200A400200003302514F3
:1028F2002200EC249231200007309E2C2508270666
:10290200031D942C26082806031D942C353026021C
:102912000318942C25082200BB002400260822005C
:10292200BA001130752C9130742C240880382200A2
:10293200A400A301A30A20000530A5172100B900B5
:10294200B72C24002408013A0319F42B053A031981
:10295200CF2B013A0319C22B0F3A0319D62B1A3A7D
:1029620003195E2C013A03197F2C962CFC24923118
:102972000830A2002000261CBB2BA5132100B901A0
:10298200BB2B21004508003AA6310319CA2E923109
:10299200013A0319092D033A0319BE2BBB2B200060
:1029A200A518D62C2100641CD82C8F315D278731C5
:1029B200112F73082300D7007408D800890D893BB2
:1029C2008909D90008002308F3001030F401F5004A
:1029D2000E30F6000800A300240025082200A500FE
:1029E200240026082200A6000800C0302400220588
:1029F2002000E400080022003808A0003908A100E5
:102A020008002100B9002000A5170800A731272FD0
:102A1200A631E32E2000B301B401B501B601391E7F
:102A2200172D21005D080319172DDD032000B91EA3
:102A3200232D2100230822040319232D0130A20291
:102A42000030A33B2000391F2B2D2100560803190B
:102A52002B2DD603210056080319EA2E2000341527
:102A62002100EA2E20000130C515B5000230B60063
:102A7200182795314B2795310038031D4F2D852797
:102A820095310038031D4F2D79194A2DBF279531F5
:102A92004F2D791A4F2D0B302100C400210023083D
:102AA2002204031D0800B9270B302100C4000800CE
:102AB200E0279531182795317919602DBF2F4B27C3
:102AC20095310038031D0800852795310038031D14
:102AD2000800791E702D0D302100C4000800A21DCF
:102AE20008000C302100C4000800E02795311827A7
:102AF2009531791D5F2D4B2795310038031D080054
:102B02008527953100380319A21808009D31FF2D41
:102B120011302000B5002030B600C51118279531BC
:102B2200A218722D791D5F2D4B2795310038031D98
:102B32000800852795310038031D0800791E552DA0
:102B4200A219722DC61C08002030C51535122100AD
:102B5200A2001C30A3001230C40008000430F32786
:102B6200953118279D319F2DED279531210023089E
:102B72002204031DBD2DD42F791D0800872D2000AE
:102B82000830B501B60018279531A51A5F2DB32D6F
:102B920005302000B5000430B600371DA41AD32D2D
:102BA200791CD52D9C31ED2C4719D92DC71D080054
:102BB2004515D32DED279531B9278331152395314D
:102BC2002200981393139A139113210012132200D7
:102BD200911321009212121128001E113E0090132F
:102BE200CB2795312800171124008C018D018E010D
:102BF200900127009101920194019501970198019A
:102C020023008C018D018E0121009D01220097017C
:102C120001308C00403021008C0022008D010C30EC
:102C220021008D00403022008E00803021008E0075
:102C32000A30BF000230C7008D302000980021000A
:102C4200111448308B002700930196019901141545
:102C520097172000950170302100990064006300ED
:102C62000B1C6A2E81315D2195318B110B102700CF
:102C7200161D4F2EF030210099001A1F3E2E2700FC
:102C820014111611971399138E312E260830A200B3
:102C92000530A301C400200035160800991F080062
:102CA200F030210099001A1F542E27009713991310
:102CB2008E312E268E1724008E1722000E17210029
:102CC2000E130830FA14C0003230DD000630C400A2
:102CD20008002000111C080070302100990080308B
:102CE2002000970000309601111036160800E727E1
:102CF20095314C1C832E08302100A2000530A3011F
:102D0200C40008004C1D872EB3140800CC1D8B2E66
:102D1200B4150800CC1C8F2E33140800CC1AB4173B
:102D22000800FA1CBC2DDD08031D08005F2DE727F3
:102D32009531B314791DA62EF827A431EA249531D2
:102D4200B9270D302100C400080021002308220405
:102D5200031D08001130C4001030A2000E30A30081
:102D620008008830F327953118279531371DA41AAA
:102D7200D32DCB1DBE2ECB11D32D791CC42EA31A5D
:102D8200D32D4514D32D4719C82EC71D0800A31AE9
:102D9200E82EE72EC030F3279531182795315908D0
:102DA2002200D1002000371DA41AD32DCB1DDC2E0A
:102DB200CB11A012D32D791CE32EC514221CD32DC6
:102DC2004516D32D4719E72EC71D080045153511A5
:102DD200D32D21004408013A0319B22E033A0319F4
:102DE200CB2E013A0319AF2D073A0319DB2D013A15
:102DF2000319982E033A0319922E0F3A0319C92D7B
:102E0200023A0319592D073A0319762D013A03198B
:102E1200892D023A0319C02D1E3A0319B52D033A22
:102E22000319332D0A3A0319782E552D0800A31ED3
:102E32001E2FB4154819B3140800A21C222FB41770
:102E42000800351B262F4A1D282FB4150800B51976
:102E52002C2FCA1D2E2F341708003519322FB61DFC
:102E6200342F33140800481C382F34173B2FC81C4A
:102E72003B2FB415481D3F2F33160800C518432FAA
:102E8200451C452F331508004519492FC51D08005B
:102E9200B3150800DD01DD0A4A1A822F241E6C2FA9
:102EA200B22701308E314F269531C81C22142100E1
:102EB2002908FE3A0319652F2000DA0121002908AA
:102EC2002000D900D801682FA531AB2595310230F9
:102ED200CB1135117E2FA41D7B2FEE30A331CD23D4
:102EE20095318E31A4269531D82795312100C40120
:102EF200C40A822F241F812F09302100C400822F8F
:102F0200DD0120005D080800DD01DD0A4A1AAE2F4E
:102F1200B71C9D2FB22701308E314F269531C81C28
:102F22002214A531AB2595310230CB113511B517DD
:102F320035172100C400AF2F371CAE2FEE30A3315E
:102F4200CD2395318E31A4269531D8279531B517E9
:102F5200B5152100C401C40AAF2FDD0120005D08B0
:102F620008002100B201B20AB101B10ACA01080087
:102F72002000C511F9114711C7110800791320006B
:102F820004304811A2102100A2000330A301D8018D
:102F9200C400080023009B0121001112911223009A
:102FA2009D019E01080004302100C4000800200099
:102FB2001E30DA01D901D800CB11351108000130D9
:102FC2002000B5000230B600C511080020302000F4
:102FD200B5000230B600080020000230B501B6008C
:102FE200331408002000B5000230B60008002100AA
:102FF2002030BE012200AF001C30B0000800F300F8
:10300200F3080319013422001908FF3A03190034A6
:10301200990AF30301285830F3000130F400F50156
:10302200F60144209831E730F3000030F4002930F3
:10303200F5000230F600442098315C30F300013094
:10304200F400F501F60144209831C830F300013054
:10305200F400F501F60144209831D030F30001303C
:10306200F400F501F60144209831CC30F300013030
:10307200F400F501F6014420C93022009700023025
:103082002100C300080076082000DD007508DC007E
:10309200DC35DD0DDC35DD0DDC35DD0D730886003C
:1030A200740887005C08C03F5D08C13F7308860052
:1030B2007408870042317508C03F7608C13F080096
:1030C2002000C901391D6D283208310403196D2809
:1030D2000130B1020030B23B391E742821004E0883
:1030E20003197428CE032000471C7B281E3047108A
:1030F2002100C1008C31C12C20004914A11C080000
:103102009031012098314C3028022C3003192702CB
:103112000318B8280230BD01BE0A3E02031C080093
:103122000130983100209831003A0319A8288731DC
:10313200F82F0230BD0A3D02031C08000130A23103
:10314200F5229831003A0319A828A231CC2A20008E
:103152002808F4002708F3000530F5004F30A331AA
:10316200F7233008F4002F08F300A231BC2A5030B4
:10317200BE01280215300319270203189A28BD013F
:10318200BE01F02820004914A11C08009031012042
:1031920098314E3028022130031927020318F028F3
:1031A2000230BC0A3C02031C0800013098310020A6
:1031B2009831003A0319A8282100AB012000BC0174
:1031C200080020004914A11C080090310120983108
:1031D2004E3028022030031927020318FB28210051
:1031E2000230AB0A2B02031C08002030F3004E30E1
:1031F200F400AD280230BC0A3C02031C0800013076
:10320200A231F5229831DA2820004914A11C0800C5
:1032120090310120983132083104031D1229A23164
:10322200C42A8C31EF249831A631162E2000381C86
:103232002C29461C2029FA302100A0002229210035
:10324200A001A10121088C31E22421001530AE0138
:10325200AE0AC100080083318A2B03302000B90571
:10326200BA01391C6829391539102100D00B682997
:103272000A30D00020000230B915F806F81C4B299C
:10328200391679194929C3219931C82199314B2914
:10329200BD2199312100D40B52290530D4002000E0
:1032A200B9172100D30B68291930D3002000B916B1
:1032B2002100D20B68290430D20078152000BF0A01
:1032C2002100D10B68293C30D10020003A142000A3
:1032D200B91CB329B910F815C00AB32920003F0858
:1032E200643A031D8A293F084002031881294008D5
:1032F2003F02FD219931031C8729C901C90A872987
:103302003F084002FD21993103187E292000BF01A8
:10331200C001F81D8E29F811391778110800200014
:103322003F08643A031DAA293F0840020318A12955
:1033320040083F02F82199310318A729C901A7299A
:103342003F084002F8219931031C9F292000BF0148
:10335200C001781DAE2978113917F8110800C9018A
:10336200C90A080021004908003A03196F29013AE5
:1033720003199029B02908002700141515111611F8
:103382008B150800270014111511161108002800CA
:103392001E1122000E1521000E1128001C0820000B
:1033A200A700A80121003A08F300F401F400F30198
:1033B20073082000A7077408A83D28009C0121007B
:1033C200FF30BA0128009D001E15210012152000B1
:1033D20012132100121720001A30A114F300F30B6C
:1033E200F029000022000E1121000E110800210018
:1033F200B3000A30330208002100B3000B3033025D
:1034020008002000C801250024082300A700250089
:1034120023082300A6002000B91E142A2100570801
:103422000319142AD7032000391FA02A23002508D4
:10343200240423040319A02A0130F300F401F50146
:10344200A3027408A43B7508A53BA02ADB229A318B
:10345200791D0800BF2A292A20004814C8229A315F
:103462004A1E372A0B302100BF00080035183D2ABA
:1034720003302100BF000800023021006A02B4308C
:103482000319690203184B2A230025082404230484
:10349200031D4E2A2100BF010800F91E08000C304E
:1034A2002100BF000800D5229A314A1A0800C03014
:1034B200CE222100BF01BF0A0800C8229A31351C62
:1034C2000800582A2000C814C8229A31351C080066
:1034D200562A2000C814D5229A31351C722A4A1E57
:1034E200762A09302100BF000800F91A502A230069
:1034F200270821006A02031D822A230026082100D0
:103502006902031808000D30BF0008002000C8142B
:10351200C8229A3135184A1A722AF91A502A0230E8
:1035220021006A02B43003196902031C08004B2A05
:1035320020004815DB229A31F91A0800582A210086
:103542003F08003A03196A2A013A03192D2A023A5E
:1035520003195E2A0B3A03192C2A013A0319632A2A
:10356200033A0319272A013A0319542A073A03197D
:10357200992A013A0319872A5A2A08002100BF0111
:10358200BF0A2000C030C801C80ACE2208002200AB
:103592000C1221000C12200008002300A300A83006
:1035A200A4000030A501080022000C1621000C1214
:1035B2002000080022000C1221000C120800F50065
:1035C200552B22004E08080020005B08080020004E
:1035D2005708080020005608080020005508080077
:1035E20021006D08080021006C08080021006B080A
:1035F20008002200430808002200440808002200B4
:10360200510808002200500808002100650808003F
:1036120022004F0808002200450808002200460840
:10362200080022004708080022004808080022007B
:103632004908080022004A08080022004B08080036
:1036420022004C08080022003F0808002500230839
:10365200080025002408080021006908080021004C
:103662006A080800220041080800220042080800F7
:1036720022004D08080022005408080022005508C4
:1036820008002200560808002200570808002200FD
:1036920052080800220053080800220038080800D7
:1036A200220039080800FF3475083F39F300F4019D
:1036B2007408003A03195E2B542B7308003A03195D
:1036C200E22A013A0319E52A033A0319E82A013AE0
:1036D2000319EB2A073A0319EE2A013A0319F12AD0
:1036E200033A0319F42A013A0319F72A0F3A031984
:1036F200FA2A013A0319FD2A033A0319002B1A3A4E
:103702000319032B013A0319062B033A0319092B58
:10371200073A03190C2B033A03190F2B013A031929
:10372200122B0F3A0319152B013A0319182B033ADE
:1037320003191B2B013A03191E2B073A0319212BDC
:10374200323A03192D2B013A0319302B1F3A031970
:10375200242B013A0319272B033A03192A2B063A81
:103762000319332B013A0319362B033A0319392B68
:10377200013A03193C2B0F3A03193F2B013A031963
:10378200422B033A0319452B013A0319482B073AF6
:1037920003194B2B013A03194E2B033A0319512BF0
:1037A200542B08002000391D08000E3023008C0025
:1037B20021008C04083023008D0021008D15791D15
:1037C200E42B2300E72B23000D1021000D14210010
:1037D200901520009019712C7814712CC930220098
:1037E2009700A33021009E00013084249B31E02405
:1037F2009B315830F3000130D8249B31A2242100A0
:10380200C301C30A0800E6249B31033084249B31A0
:10381200E0249B31E730F3000030D8249B31A2240E
:103822002100C3010800E6249B31093084249B3126
:10383200E0249B315C30F3000130D8249B31A22478
:1038420003302100C3000800E6249B310C3084249D
:103852009B31E0249B31D030F3000130D8249B31DE
:10386200A22405302100C300080023000D16A03059
:1038720021009E00003020000D1A0130E1002100DD
:103882000D1623000D16003020008D1A0130E000C5
:1038920022008D1621008D120B3084249B31E024EE
:1038A2009B31C830F3000130D8249B31A2249B31D4
:1038B200E008031D602C22008D1221008D122000D1
:1038C200E108031D672C22000D12692C22000D163F
:1038D20023000D1221000D120D120230C300080048
:1038E20021004308003A0319142C013A0319042C4D
:1038F200033A0319EF2B013A0319252C063A03194F
:10390200362C6E2C0800F600F500F50DF50D1D089D
:103912007506833975069D001D141F30F500F50BE1
:10392200902C932C21009D1421009D1C9A2C640044
:10393200952C1C08F400F3011B08F3070318F40A82
:1039420008007308860074088700423173088400F7
:1039520074088500403F0002DC000131413F003B1A
:10396200DD0075085C07DE0076085D3DDF00730848
:103972008600740887005E08C03F5F08C13F730875
:10398200860074088700403FDC00413FDD00770A73
:10399200CC2CDD36DC0C890BCA2C7308860074082B
:1039A200870042315C08C03F5D08C13F0800F40057
:1039B2006308F6006208F5000330F7000800740897
:1039C2002000E3007308E2000800CA3022009700DA
:1039D200A33021009E0008002000B513221079199F
:1039E200FE2C22004E1DF92C0F302100C4000800CD
:1039F200262503302100C4000800FF2DB519032D30
:103A0200CA1D142D231D092D5230AD002C30842DDA
:103A1200A31C0F2D8930AD005E30842DDC308D2546
:103A22009C3105309B2DA11F172D262D231D1E2DE8
:103A3200523094259C3105309B2DA31C222D8930B8
:103A4200232DDC30AD005E30842D2000231C4A2D56
:103A5200201E322D1B3094252200AD01AD0AAE018D
:103A62000800A01D392D493094259C3103309B2D2F
:103A7200201D3F2D6E30AD002C30842DA01C452D15
:103A82009330AD005E30842DDC308D259C310530C5
:103A92009B2DA31C672D201E502D11302C2DA01DF7
:103AA200572D2E3094259C3103309B2D201D5D2DEA
:103AB2004530AD002C30842DA01C632D5C30AD0050
:103AC2005E30842D8930AD005E30842D201E6B2D3A
:103AD2000A302C2DA01D722D1B3094259C310230F2
:103AE2009B2D201D792D6E3094259C3102309B2D0B
:103AF200A01C802D93308D259C3103309B2DDC3012
:103B0200AD005E30842DAE01A9000130AA00043060
:103B12002200AD00AE010800AD005E30AE01A9008A
:103B22000130AA000800AD002C30AE01A90001301E
:103B3200AA0008002200AD00AE0108002000B91E54
:103B4200A72D21005808FF3A031DD80A791DB82D68
:103B52002000A21EB52D6030A2122100A200093061
:103B6200A3001030C4000800E9259C31FF2D20007D
:103B7200371E251BBF2D2100E31DC32D200035114B
:103B82009731D42F2000A61CC82DA2160800973109
:103B92004B279C310038031D0800973185279C3143
:103BA2000038031D0800A41FDB2D0F303511210042
:103BB200C4000800A21FE02D0A302100C400210029
:103BC200230822040319791C080020003511F72D5F
:103BD2000C30210058020318080020302200AF00E8
:103BE2001C30B0003C302100D6000800113021000A
:103BF200C4001030A2000E30A30008002000A21D55
:103C0200062E0C302100C40008000D302100C40033
:103C120008002000CA01391B102E361E122E9B26C8
:103C22009E312000391F8F2E21005A0803191A2EA7
:103C3200DA03230022082104200403198F2E013005
:103C42002000DF00E001E1012300A0022000600863
:103C52002300A13B200061082300A23B8F2E2000FD
:103C62004B1C812E4B10C81C382E21197F2EA331DC
:103C7200282BCB1D432ECB113F2E45144A12210077
:103C8200C601080079183E2E4719492EC71D0800A3
:103C920045153F2E14302000CA0059082200D100D9
:103CA2007919572E05302100C60008002000CB1DCF
:103CB2005E2ECB114A12CB10402E791C452EC51414
:103CC2003F2E2000CA164B190800C8187F2EA231B9
:103CD200DE2A20004A144B1E0800662E2000CA1459
:103CE200C81C0800842E2000CA164A17C8187F2E46
:103CF2002300220821042004031D0800A531932D6E
:103D0200CB1C0800CB10A331B72B18302000CA00FF
:103D120079193A2E06302100C60008002100460813
:103D220084000830040203180800A03104353E3E26
:103D3200820008005830F3000030F40006279E315C
:103D4200003A0319A62E2000CB152000A31A080062
:103D5200D430F3000130F40006279E310038031DF1
:103D6200B52E2000CE1F08006330F3000130672714
:103D72009E3146279E316330F3000130F40006275E
:103D82009E31003A0319C72E20004B166030F30013
:103D9200013067279E3146279E316030F3000130A3
:103DA200F40006279E31003A0319D92E20004B1148
:103DB2005530F3000030F4008D30F501F600273065
:103DC200F70046279E315530F3000030F4000627F5
:103DD2009E31003A0319F42E20002430CB14D70070
:103DE200EA30D600D501EB30F3000030F4000627AC
:103DF2009E31003A031908002000EF304B142100D5
:103E0200ED00F130EC00EB01080073086F279E31E2
:103E1200031D152F730875279E31031D152F730877
:103E22007B279E310319013473087B279E31031DC2
:103E32002F2F730886007408870041310108003A69
:103E4200031D292F730886007408870042318103FD
:103E52007308860074088700413181037308860065
:103E6200740887008103730886007408870081083C
:103E7200031D0034730875279E31031D0034730837
:103E82006F279E31031D00340134730886007408C5
:103E92008700403F2000DC00413FDD00423FDE0062
:103EA2007702031D5A2F5D087602031D5A2F5C0804
:103EB20075020318080073088600740887007508E5
:103EC200C03F7608C13F7708C23F0800F400803047
:103ED200F5003A30F6000930F70008008600740851
:103EE200870042318108080086007408870041314A
:103EF20081080800860074088700810808000134E0
:103F02000034BE3400340034003400340034003451
:103F12000034FF34FF34FF34FF3400340034003403
:103F2200003400343B34FF34FF34FF34FF34FF34B9
:103F3200FF34FF34FF34FF34FF34FF34FF34933156
:103F42003C2B93313F2B9331422B9331452B9331B1
:103F5200482B93314B2B93314E2B9331512B933171
:103F6200542B9331572B93315A2B93315D2B933131
:103F7200602B9331632B9331662B9331692B213460
:103F8200433400340034BB34143403344734003433
:103F92001134003400340034FF34FF34FF34FF3472
:103FA200FF34FF34FF34FF341F34B0340234A03402
:103FB200003400340034003400340034003400345F
:103FC200003400344B340234003400340034003402
:103FD200003400340034003400340034003400343F
:103FE200003400340034BB3414340334FF34FF345F
:103FF2002134433418340534FF34FF34FF3499310B
:104002000529993117299831E2289831C3288C3132
:10401200CC2C8B31262B8B31E02B8B31672B8B31C8
:10402200C92B8B31F12B8B318A2B8C311A2C8C3191
:10403200382C8C31542C8C31732C8C318C2C8C314F
:10404200A82C98317D288C31CC2C8C31CC2C8C3105
:10405200CC2C8A31EB2A8B310C2B8B31202B8A31E1
:10406200BA2A8A31D62A8A31EA2A8A31722A8A31CE
:10407200932A8A31AA2A8A316E2A9E31302E9E31A3
:10408200862E9E314B2E9E31622E9E319A2E9E316D
:104092006A2E9E316F2E9E31742E90312C289031D3
:1040A2003C2890314D28903166289031712890310A
:1040B2007A2890317D288431492C84311D2C843119
:0A40C200152C8531172D85311B2DBB
:10454A002100AA352A10080021000130AA352A14B0
:10455A00BC060800640080010131890BB02A0034CE
:10456A0076302300D600A730D500D401080074089D
:10457A002000B2007308B1002100C1010800200028
:10458A003230BC012100AC00C101C10A080021007F
:10459A00AB0120000230BC012100C1000800280044
:1045AA001E1122000E1521000E11121320001213E3
:1045BA00080080302300A0005130A1000130A20081
:1045CA0007302100C6000800F300E208031DF02AA4
:1045DA007308E200013473086206031901340034D7
:1045EA00F300F30803190134273022001902031CCF
:1045FA0000349903F303F62A03302100B7003B087D
:10460A00033E2000BC00CD30BE01BD01B100B201A5
:10461A0008000230C10021003B0820004107BC000D
:10462A00CD30BE01BD01B100B201080027009101E1
:10463A00920194019501970198011415E8308B00B5
:10464A0021001114080009302200E2003A30E1008A
:10465A008030E000200003304B152100C60008001E
:10466A009731CB27E0303D00A605A70521008E171C
:10467A0024008E1722000E1721000E1308002000B6
:10468A005B1DC510DB1C45105B1A4D2B4511C5116E
:10469A005B18512B79134811DB1D45120800F300F2
:1046AA00023E8600013087008108031D0034730A28
:1046BA0086008108031D00347308860081080319E7
:1046CA00013400342000DC01DD01731C712B7508F4
:1046DA002000DC077608DD3DF535F60DF436F30CDF
:1046EA0074087304031D6A2B20005D08F4005C083B
:1046FA00F300080042082100300603198F2B300806
:10470A00203E860003308700010823009A0021001A
:10471A00B00A080011120230D90020004D15C2015A
:10472A002100B00108002000111022003608F10013
:10473A003508F000A823A33121002708031908002F
:10474A008431012408002000181DB22B18107108AA
:10475A0097007008960018140800710897007008EE
:10476A00960008002000EE30CD238E31A4262000CA
:10477A001E30DA01D901D8002200E301E401E50183
:10478A002000CB114A16CA152100C601C60A080024
:10479A004511451079134811F3000030F400F50172
:1047AA000800F300F400F41FDD2B2000CE1F0034B4
:1047BA00741FE22B20004E1C0034F41EE72B20004D
:1047CA004E1F0034741EEC2B20004E1B0034F41DC7
:1047DA00F12B2000CE1E0034741D01342000CE1EA1
:1047EA0001340034F60073082000DC007408DD0090
:1047FA00DE01DF01750A052CDC35DD0DDE0DDF0D6E
:10480A00890B012C7608860087015C08C03F5D0889
:10481A00C13F5E08C23F5F08C33F7608043E860078
:10482A007308C03F7408C13F0800272C3724810051
:10483A00080037248104080037248105080037243A
:10484A008106080021006108003A03191B2C013A6D
:10485A0003191E2C033A0319212C013A0319242C9B
:10486A00362C08007308860074088700750808004B
:10487A00DD01DE017408730403195D2CDC01DC0A16
:10488A00F41B4A2CF335F40D442CDD35DE0D740887
:10489A007602031D522C73087502031C592C7308E7
:1048AA00F5027408F63B5D14F436F30CDC0B4A2C63
:1048BA005E08F4005D08F30008007E243D00260827
:1048CA00E0391438A6003C002408E0391738A4005F
:1048DA0021008E170E132000C2012100B001200012
:1048EA0030304D114D10CD122200B3007530B40096
:1048FA00080023009C018A309B0090309D002630DE
:10490A009E0048309F002100911611120800921251
:10491A0022001208A13A031D982C21006130CB0114
:10492A002200920008002000C71CA22C2100A130FE
:10493A00CB01CB0A220092000800471422008C12F5
:10494A0021008C12A92408002000A901AA0125002F
:10495A00930120009C019A012500910122008E12E8
:10496A0021008E123E009013080028001E1122001A
:10497A000E1521000E1128001C082000A700A8010E
:10498A0021003A08F000F101F100F001700820005E
:10499A00A7077108A83D28009C012100FF30BA0131
:1049AA0028009D001E152100121520001213210057
:1049BA00121720001A30A114F000F00BE22C0000AC
:1049CA0022000E1121000E110800CA3022009700A1
:1049DA00083098007F30990016309300A830940070
:1049EA000E1521000E1128009C0121000130BA0188
:1049FA0028009E00FF309D00210012110C14220095
:104A0A00981793172000121321001217E830F300A9
:104A1A000330F400102D2000BE01BD012100AB01BE
:104A2A0074082000B0007308AF0011302100C100E3
:104A3A00080023009D1C232D1D121D160330210082
:104A4A00CF00200030304D142200B3007530B4007E
:104A5A0023001908F00020004208203E8600033097
:104A6A00870070088100C20A420B472D06302600D3
:104A7A002002031808002000C2012100B001200012
:104A8A004D1008002600200820004202031C0800DE
:104A9A0023001D12210091122000CD160800F300F8
:104AAA00702D22003C08080022003D080800220060
:104ABA003E080800220038080800220039080800C9
:104ACA00FB308E2DFC308E2D22003A080800220081
:104ADA003B080800FF347308003A0319562D013ABF
:104AEA000319592D033A03195C2D073A03195F2D4F
:104AFA00033A0319622D013A0319652D0F3A031976
:104B0A00672D023A0319692D013A03196C2D6F2D8D
:104B1A00080084009F308500000808009731B227FA
:104B2A00A53101308E314F26A53109302200E5002A
:104B3A003A30E4008030E30020004B12AB2502300B
:104B4A00CB114A164A152100C60008002000A11BF5
:104B5A00B42D0E30DA01D9001030D8000800201E1A
:104B6A00BC2D7030DA01D9008030D8000800A01DB1
:104B7A00C42D2A30DA01D9003030D8000800201DAF
:104B8A00CC2D1C30DA01D9002030D8000800A01C36
:104B9A00AE2D1530DA01D9001830D80008002000EF
:104BAA00E0008600023087000108DF006008860006
:104BBA00413FE10026105F08FF3A031D092E6108F4
:104BCA00FF3A031DEB2D2000261401346108DE0094
:104BDA005E0E0F390E3A031D092EDC01DC0ADD01D7
:104BEA005E080F39890AFB2DDC35DD0D890BF92D9D
:104BFA005C0822004305F30020005D0822004405FA
:104C0A00F4007304031DE82D2200390820005F0612
:104C1A00031D00342200380820006106031D0034F9
:104C2A000134F600860087015F26A6317608043E25
:104C3A008600403FE000413FE1006008E200610871
:104C4A00E300E401E5017308E6007408E700E801FF
:104C5A00E9016208E6026308E73B6408E83B650885
:104C6A00E93B6608DC076708DD3D6808DE3D690840
:104C7A00DF3D760886005C08C03F5D08C13F5E08DC
:104C8A00C23F5F08C33F760886005F26A631750AD1
:104C9A00532E0310DF0CDE0CDD0CDC0CFF3E031D73
:104CAA004E2E7608043E860087015C08C03F5D08E8
:104CBA00C13F0800403FDC00413FDD00423FDE00CB
:104CCA00433FDF00080007302000A405A501A60124
:104CDA00391D8B2E241D792E2100DC08031D772E09
:104CEA0001007C2EDC037C2EC8302100DC0022006F
:104CFA003208310403198B2E0130B1020030B23B65
:104D0A0032083104031D8B2E2000A5142000391F00
:104D1A00C82E21004C080319A02ECC0BA02E22006D
:104D2A003208310403199B2E2100A02E2000FF30E7
:104D3A00A5142100CC00D730A3315423A631003862
:104D4A00031DC82ED730F3000130F4009F31062727
:104D5A00A631003A031DBC2EC82E8631C726A631BD
:104D6A00C82E20002516C82E2000A515C82E210001
:104D7A002F08013A0319B22E033A0319B62E013A43
:104D8A000319B92EC82E9431C22C631CDD2E203093
:104D9A00B4016310A531D425A631003A0319DD2EDA
:104DAA0024002208083A031DDF2E02302100C50024
:104DBA009431D02C2100C501C50ADD2EA231B522BD
:104DCA00A6319431F624A631403A031D022F3F3012
:104DDA002410A410240022052000E4003F3A031DF9
:104DEA00FC2E24002308A5315425A631292F24009E
:104DFA0022089A31E022A631292F9431F624A631CD
:104E0A00803A9231031D422A2410A4102400230858
:104E1A00A331D623A631003A0319322F24002208DF
:104E2A002100A8003F30A805240023082100E10042
:104E3A000330E105200024142400A31F272F20009B
:104E4A002410A41420004E082200A20020000330DF
:104E5A00A5172100B9009331B92B92313D2A2100BF
:104E6A0036080319392FEE2F3D0803193D2FEA2F73
:104E7A001430BD000D30B600382F2000391D4D2FDB
:104E8A0021003D0803194A2FBD033608031DB60346
:104E9A0020003318522F211E532FF22FB31C562FE6
:104EAA00EA2FB41BA22FA32F2100B20BA52F033088
:104EBA00B200B10BA52F0330B100822FCA01CA0A72
:104ECA00C627A7310038031DA52F02302100CA00CA
:104EDA00B227A7310038031DA52F2100CA01D927FF
:104EEA00A731A52F2000B31E6A2F03302100B1007D
:104EFA00A52F200034197A2F722F4A08003A031975
:104F0A00632F013A0319772F033A03197E2F722F61
:104F1A00A52F3208023A0319952F2000B41D522FEB
:104F2A00EE2F3208023A0319552F522F3208023A4D
:104F3A000319A22F2000331F522F342FB91A592FC9
:104F4A0021004A08003A03198E2F013A0319962FB5
:104F5A00033A03199B2F552F08002000B31FB72FC0
:104F6A002100F82F341CBD2F02302100B10001347A
:104F7A00B41C3419C22F331F003403302100B1008E
:104F8A0001342000331DCB2F2100F82FB31DD12F60
:104F9A0002302100B1000134331AD52FB31E003478
:104FAA0003302100B10001342000341EE02F21001B
:104FBA00B101B10A0800B41EE62F02302100B10087
:104FCA00080003302100B100080022008D120D16DE
:104FDA00FC2F22000D128D16FC2FCF3022008D05DA
:104FEA0021008D0508000130B101B10A0800CF3057
:104FFA0021008D0508000034213443340034003484
:10500A00BB341434033440340034113400340034D3
:10501A000034FF34FF34FF34FF34FF34FF34FF34ED
:10502A00FF341F34B0340234A03400340034003466
:10503A0000340034003400340034003400344B347B
:10504A0002340034003400340034003400340034B4
:10505A0000340034003400340034003400340034A6
:020000040001F9
:080000000700080002000000E7
:04000E003CFFFBD7E1
:00000001FF
